:100000000C942E030C9456030C9456030C94C31BAF
:100010000C94C31B0C94C31B0C9456030C945603F2
:100020000C9456030C9456030C9456030C945603EC
:100030000C9456030C9456030C9456030C945603DC
:100040000C94211B0C9456030C94911B0C946B1B69
:100050000C9456030C9456030C9456030C945603BC
:100060000C94021A0C945603434D5F424F4F542098
:1000700073746167653D0020667265655F737261C8
:100080006D3D00434D5F424F4F542073746167656F
:100090003D00524953494E470046414C4C494E475A
:1000A00000464143544F52595F46414C4C424143F4
:1000B0004B00454550524F4D002064697265637492
:1000C000696F6E3D002072656C656173655F646584
:1000D000626F756E63655F6D733D00206879737440
:1000E0006572657369733D00207468726573686F2B
:1000F0006C643D00434D5F48575F53455454494E2F
:10010000475320736F757263653D0045535033321A
:10011000004C4F43414C002070656E64696E673D32
:10012000002072756E3D002073657373696F6E3DBC
:100130000052554E5F434F4D504C4554454400527C
:10014000554E5F535441525445440020736F7572AD
:1001500063653D0051554555455F4F525F454550DC
:10016000524F4D5F46554C4C005155455545440046
:1001700020747970653D00434D5F55415254200015
:10018000423D5342524F53004F534849424B412046
:1001900053495354454D5900413D504F56544F52C9
:1001A00020423D4D454E55002052415A00474F5484
:1001B0004F564F3A2000413D44414C27534845009B
:1001C0004B41545553484B4120474F544F564100E3
:1001D000433D53544F5000525543484E4F592052BF
:1001E000455A48494D0020413D474F002F00564990
:1001F000544B493A002F005041555A41204B41542D
:100200002E002F005649544B493A002F004E414DC5
:100210004F544B41204B41542E00413D53544152C9
:100220005420433D52554348002F00474F544F56EA
:100230004F204B41542E0056564F442049204E41EA
:100240005A484D492023002020233D4F4B0056564D
:100250004F443A002F005649544B49204B41542EED
:100260000056564F442049204E415A484D492023BC
:10027000002020233D4F4B0056564F443A004B4F31
:100280004C2D564F204B4154555348454B3F004C45
:1002900043445F52454E4445524544004C43445FFD
:1002A000524F5732004C43445F524F5731004C433A
:1002B000445F4C494E45535F4255494C54004C43B2
:1002C000445F52454E4445525F454E544552004EA0
:1002D0004F4E455F4F525F424F4F544C4F41444544
:1002E000525F434C454152454400574154434844B2
:1002F0004F470042524F574E5F4F55540045585498
:1003000045524E414C5F524553455400504F57455E
:10031000525F4F4E002063617573653D00434D5F32
:10032000424F4F542072657365745F666C616773EA
:100330003D307800206E6578745F72756E3D0020E8
:100340006E6578745F73657373696F6E3D00434DBE
:100350005F454550524F4D20726573746F726564EE
:100360005F70656E64696E673D0052454144590097
:100370004F555450555453005354415445004C4329
:10038000440053544152545F425554544F4E00421E
:10039000555A5A4552005353520048575F534554DB
:1003A00054494E475300454550524F4D0055415218
:1003B000540053455249414C007C253034580A00C2
:1003C000434D50317C4A4F425F43414E43454C5F61
:1003D00041434B7C307C43414E43454C4C45447C2F
:1003E000414C4C5F434C4541527C4300434D5F4A76
:1003F0004F4220454D455247454E43595F434C457A
:10040000415220726573756C743D414C4C5F434C96
:1004100045415200434D5F4A4F4220454D455247AA
:10042000454E43595F434C45415220726573756C8C
:10043000743D52454A45435445445F4143544956EF
:10044000455F52554E00300031002068616E646C8B
:1004500065643D002073746174653D0020636F64C2
:10046000653D00434D5F4B4559206B65793D00521A
:10047000454A45435445440041434345505445444F
:100480000020726573756C743D0020636F696C7336
:100490003D00434D5F4A4F422052582069643D0061
:1004A00052454A45435445440043414E43454C4C14
:1004B00045440020726573756C743D00434D5F4A7E
:1004C0004F422043414E43454C2069643D004E4F0E
:1004D0004E45004E41434B5F5245545259004455DE
:1004E000504C49434154450041434B0020726573D1
:1004F000756C743D00434D5F554152542052582055
:1005000072756E3D0020667265655F7372616D3D48
:10051000002073746174653D00434D5F414C495642
:100520004520757074696D655F6D733D0000000056
:1005300000240027002A000000000800020100003B
:1005400003040700000000000000007C2530345840
:100550000A00434D50317C4A4F425F43414E434570
:100560004C5F41434B7C256C757C43414E43454C6D
:100570004C45447C25737C4300434D50317C4A4FAD
:10058000425F43414E43454C5F41434B7C256C7574
:100590007C52454A45435445447C25737C43004383
:1005A0004D50317C4A4F425F41434B7C256C757CFA
:1005B00041434345505445447C25737C4300434D9F
:1005C00050317C4A4F425F41434B7C256C757C52D5
:1005D000454A45435445447C25737C430052454A73
:1005E000454354454400414343455054454400432A
:1005F000414E43454C4C454400434D50317C4A4F9D
:10060000425F41434B7C00434D50317C4A4F425F37
:1006100043414E43454C5F41434B7C00000000008A
:1006200023002600290000000000250028002B00E0
:100630000404040404040404020202020202030388
:100640000303030301020408102040800102040890
:1006500010200102040810206C1CC53511241FBE97
:10066000CFEFD8E0DEBFCDBF14E0A0E0B1E0E6E020
:10067000F8E702C005900D92AA32B107D9F728E039
:10068000AAE2B4E001C01D92AC35B207E1F713E075
:10069000CDE2D3E004C02197FE010E949E3BCC3204
:1006A000D107C9F70E94561F0C94F63B0C9400002A
:1006B000E091AC05F091AD058081833010F087307A
:1006C00011F481E0089580E00895DC01E091AA052D
:1006D000F091AB058D919C911197811524E09207C3
:1006E00010F08FEF93E09483838312968D919C9109
:1006F0001397811524E0920710F08FEF93E0968313
:10070000858314968D919C9115979087878381E0BE
:1007100016969C91913009F080E0818B089596E0C7
:10072000899FD0011124A951B84F90967C936E9364
:100730005F9791E091969C939197E0915408F09186
:10074000550890915308992339F0309751F0811151
:1007500008C0809103080994309719F05C968C9139
:10076000FACF08952091F304260F3327331F213247
:100770003105ECF420911905FC0190E080E0243073
:1007800069F082E00895A091F3042191AC014F52E9
:100790005B4FA40FB52FB11D2C930196861798F3CC
:1007A0008091F304680F6093F30480E0089581E082
:1007B0000895089508950895E091C8048091C704AC
:1007C000E81730F4F0E0E955FB4F808190E00895A0
:1007D0008FEF9FEF08959091C8048091C7042FEF89
:1007E0003FEF981748F4E92FF0E0E955FB4F2081DF
:1007F00030E09F5F9093C804C90108958091C704B9
:100800009091C804891B990B0895CF92DF92EF92C3
:10081000FF920F931F93CF93DF937C01CB018A014B
:100820002091A604222389F0EB016B01C40ED51E92
:10083000CC15DD0569F06991D701ED91FC9101902E
:10084000F081E02DC7010995F3CF642F0E94B20318
:10085000C801DF91CF911F910F91FF90EF90DF9032
:10086000CF900895CF93DF931F92CDB7DEB7698302
:100870002091A6042223F9F02091C904203258F0D7
:1008800021E030E0FC013383228390E080E00F9090
:10089000DF91CF9108958091CA04E82FF0E0EA57E4
:1008A000FB4F998190838F5F8093CA048093C90422
:1008B00081E090E0ECCF61E0CE0101960E94B203AE
:1008C000F7CF833081F028F4813099F08230A9F09D
:1008D00008958730A9F08830C9F08430B1F4809150
:1008E00080008F7D03C0809180008F77809380008F
:1008F000089584B58F7784BD089584B58F7DFBCF2F
:100900008091B0008F778093B00008958091B000FF
:100910008F7DF9CFCF93DF93282F30E0F901E95C89
:10092000FA4F8491F901EC5BF94FD491F901E05D44
:10093000F94FC491CC23A1F081110E946104EC2FE6
:10094000F0E0EE0FFF1FE45EF94FA591B491EC913A
:10095000ED2381E090E009F480E0DF91CF910895EC
:1009600080E090E0FACF1F93CF93DF93282F30E001
:10097000F901E95CFA4F8491F901EC5BF94FD491EC
:10098000F901E05DF94FC491CC23A9F0162F811134
:100990000E946104EC2FF0E0EE0FFF1FEA5DF94FBB
:1009A000A591B4918FB7F894EC91111108C0D0952E
:1009B000DE23DC938FBFDF91CF911F910895DE2B53
:1009C000F8CF8093730761E090917107981360E00E
:1009D000809170070C94B3041092190581E0809304
:1009E0001B0510921A0561E082E10E94B30461E0E8
:1009F00083E10E94B304E9EBF0E080818E7F808385
:100A000080818D7F808388E48093B80085E4809323
:100A1000BC000895CF93DF9391E09093D004882396
:100A2000B9F0C091B800D091BA008091BC008A7B27
:100A30008093BC0060E082E10E94B30460E083E147
:100A40000E94B3040E94EC04D093BA00C093B80093
:100A5000DF91CF910895CF93DF9390E0FC01EC5BA1
:100A6000F94F2491805D994FFC0184918823C9F04E
:100A700090E0880F991FFC01E35DFA4FA591B491B6
:100A8000FC01EA5DF94FC591D49161110DC09FB78A
:100A9000F8948C91209582238C9388812823288335
:100AA0009FBFDF91CF910895623051F49FB7F894C2
:100AB0003C91822F809583238C93E8812E2BEFCF5E
:100AC0008FB7F894EC912E2B2C938FBFEACF8E30FA
:100AD00008F08E508770806480937C0080917A004B
:100AE000806480937A0080917A0086FDFCCF8091AB
:100AF00078009091790008953FB7F894809182042E
:100B000090918304A0918404B091850426B5A89B9C
:100B100005C02F3F19F00196A11DB11D3FBFBA2F8F
:100B2000A92F982F8827BC01CD01620F711D811D4F
:100B3000911D42E0660F771F881F991F4A95D1F7D4
:100B400008958F929F92AF92BF92CF92DF92EF92D1
:100B5000FF924B015C010E947C056B017C010E94AD
:100B60007C056C197D098E099F09683E73408105DB
:100B70009105A8F321E0821A9108A108B10888EE36
:100B8000C80E83E0D81EE11CF11C81149104A1045D
:100B9000B10429F7FF90EF90DF90CF90BF90AF9016
:100BA0009F908F9008952FB7F89460917E04709174
:100BB0007F0480918004909181042FBF08950F934A
:100BC0001F93CF93DF93C82FD62F86E0C89FF001E5
:100BD0001124E951F84F11A2878D90A18130910520
:100BE000F1F058F082309105F1F1039709F440C01B
:100BF000DF91CF911F910F9108956623C9F361E0B2
:100C000070E08C2F0E948F030E94D30560933F08F1
:100C1000709340088093410890934208E9CF0E9466
:100C2000D30500913F081091400820914108309170
:100C30004208AB01BC01401B510B620B730B80914E
:100C4000510890915208B0E0A0E084179507A607DC
:100C5000B70748F462E070E08C2FDF91CF911F91CD
:100C60000F910C948F0363E070E0D111C1CFF4CFEA
:100C700070E060E0F1CF862F642F0C942B05862F57
:100C8000642F0C94B304862F0C948A04DC01ED913C
:100C9000FC910190F081E02D0994EF92FF920F9367
:100CA0001F93CF93DF938C017B01D0E0C0E0F7016D
:100CB000EC0FFD1F6491662361F0D801ED91FC916A
:100CC0000190F081E02DC8010995892B11F0219642
:100CD000EECFCE01DF91CF911F910F91FF90EF905A
:100CE0000895AF92BF92CF92DF92EF92FF920F934F
:100CF0001F93CF93DF936C017B018B01040F151FB2
:100D0000EB015E01AE18BF08C017D10759F0699119
:100D1000D601ED91FC910190F081E02DC60109957D
:100D2000892B79F7C501DF91CF911F910F91FF902A
:100D3000EF90DF90CF90BF90AF900895FC01538D5E
:100D4000448D252F30E0842F90E0821B930B5417A5
:100D500010F04F96089501970895FC01918D828DB2
:100D6000981761F0A28DAE0FBF2FB11D5D968C91CB
:100D7000928D9F5F9F70928F90E008958FEF9FEF0D
:100D80000895FC01918D828D981731F0828DE80FC6
:100D9000F11D858D90E008958FEF9FEF0895FC0180
:100DA000918D228D892F90E04096821B91098F7042
:100DB000992708958BE495E00E94CF0621E0892BC6
:100DC00009F420E0822F089580E090E0892B29F03B
:100DD0000E94DA0681110C9400000895FC01A48D94
:100DE000A80FB92FB11D9D962C91848D90E001968E
:100DF0008F719927848FA689B7892C93A089B1898F
:100E00008C91837080648C93938D848D981306C02D
:100E10000288F389E02D80818F7D80830895EF9291
:100E2000FF920F931F93CF93DF93EC0181E0888FA4
:100E30009B8D8C8D98131AC0E889F989808185FF74
:100E400015C09FB7F894EE89FF896083E889F98916
:100E500080818370806480839FBF81E090E0DF9118
:100E6000CF911F910F91FF90EF900895F62E0B8D6B
:100E700010E00F5F1F4F0F711127E02E8C8D8E1128
:100E80000CC00FB607FCFACFE889F989808185FF8D
:100E9000F5CFCE010E94EE06F1CFEB8DEC0FFD2FCA
:100EA000F11DF5A69FB7F8940B8FEA89FB89808125
:100EB0008062D1CFCF93DF93EC01888D8823B9F086
:100EC000AA89BB89E889F9898C9185FD03C0808155
:100ED00086FD0DC00FB607FCF7CF8C9185FFF2CFD2
:100EE000808185FFEDCFCE010E94EE06E9CFDF9134
:100EF000CF91089520916D0430916E042817390721
:100F000071F490916B0480916C04981741F0E0911A
:100F10006B04F0E0E55DFB4F808190E008958FEF7A
:100F20009FEF0895EF92FF920F931F93CF93DF935C
:100F3000DC015C96ED90FC905D97E114F10479F48E
:100F400081E090E013969C938E93129790E080E05E
:100F5000DF91CF911F910F91FF90EF9008955196DF
:100F6000ED91FC91529750968C915097982F9095B7
:100F70000FB75E962C915E97122F127021FD60952F
:100F8000F8942081112319F1282B2083E701219760
:100F9000F1F728E0462F50E0308160FF1AC0382B6F
:100FA0003083E7012197F1F7BA01759567952150D4
:100FB00089F7112381F08081892380830FBF5C969C
:100FC0008D919C910197F1F781E090E0C1CF2923A9
:100FD000DCCF3923E5CF9081892BEFCF20916D04B1
:100FE00030916E042817390761F480916C042091C8
:100FF0006B0490E0805C9F4F821B91098F7399274F
:10100000089590E080E0089520916D0430916E0481
:1010100028173907B9F490916B0480916C049817E4
:1010200089F0E0916B04F0E0E55DFB4F8081209159
:101030006B0430E02F5F3F4F2F73332720936B04F7
:1010400090E008958FEF9FEF0895CF92DF92EF9297
:10105000FF920F931F93CF93DF93FC01C48121E094
:101060002093A604C0932A041092CA041092C904C3
:101070008485682B8FE395E00E943204D091C904E7
:10108000D13208F092C00E947C056B017C018091F6
:101090001905811165C082E08093190581E0809374
:1010A0001B058FEF8093180510923D05D0933C05EA
:1010B000A6E8B4E0ECE1F5E080E0D81385C010923A
:1010C0003E0580913E05CC0FC82BC0933E05809114
:1010D0001A05813009F07CC010921A050E947C0527
:1010E0006B017C0180913E058093BB008091CC0414
:1010F0009091CD04A091CE04B091CF04892B8A2B7E
:101100008B2B99F00E947C050091CC041091CD04AA
:101110002091CE043091CF046C197D098E099F096E
:101120000617170728073907E0F18091BC0083FDF7
:10113000D9CF85EC8093BC000E947C056B017C01BB
:1011400080911905823009F445C0809118058F3FC0
:1011500061F180911805803241F18091180525C018
:101160008091CC049091CD04A091CE04B091CF0495
:10117000892B8A2B8B2B09F48ACF0E947C05009146
:10118000CC041091CD042091CE043091CF046C1981
:101190007D098E099F09061717072807390708F0E8
:1011A00076CF8091CB040E940A051092CA04109257
:1011B000C9041092A604DF91CF911F910F91FF9067
:1011C000EF90DF90CF9008959D9191938F5F75CFB1
:1011D00085EEB0CF8091CC049091CD04A091CE0447
:1011E000B091CF04892B8A2B8B2B09F4A9CF0E94B5
:1011F0007C050091CC041091CD042091CE04309157
:10120000CF046C197D098E099F0906171707280757
:10121000390708F095CFC5CF089590E080E0089594
:101220000895FC0145835683678370870895CF92A4
:10123000DF92EF92FF920F931F93FC01828188232C
:10124000B9F005811681278130856A017B01C01ABA
:10125000D10AE20AF30A0381148130E020E0C016CB
:10126000D106E206F30658F04583568367837087FC
:101270001F910F91FF90EF90DF90CF90089580E045
:10128000F7CFFC0182AD93ADA4ADB5ADAC01BD010E
:101290004F5F5F4F6F4F7F4FF1F042AF53AF64AF7F
:1012A00075AF81879287A387B48723E02787208340
:1012B00021E022A7458156816781708543A754A705
:1012C00065A776A787A790ABA1ABB2AB14AA13AA68
:1012D00025AB81E0089541E050E060E070E0DDCFB3
:1012E000FC011082118212821382148215821682EE
:1012F000178210861286118613861486DC011D96CD
:1013000081961D921D92A817B907D9F711A20895C9
:101310009C01FB01A081A03178F4FA0194914F5F08
:101320005F4F992349F081E08A0FFB018083A20F70
:10133000B32FB11D9C93EDCF0895AF92BF92CF9282
:10134000DF92EF92FF920F931F93CF93DF9300D022
:1013500000D01F92CDB7DEB78C019B01CA01AE0150
:101360004F5F5F4F7A016A01E0E04AE0A42EB12CA2
:10137000EF5FB5010E946B3B805DD6018D936D01DF
:10138000CB01009711F0E53099F7E150F0E031968C
:10139000EE0DFF1DD9019C91903158F481E0890F29
:1013A0008C93D801A90FB11D82918C93EE15FF0586
:1013B00089F70F900F900F900F900F90DF91CF91C2
:1013C0001F910F91FF90EF90DF90CF90BF90AF9063
:1013D0000895FC01680F791F8FEF9FEF21918227FD
:1013E00028E0AC014170552796958795452B21F053
:1013F00031E0832730EA9327215099F76E177F0752
:1014000069F70895CF92DF92EF92FF921F93CF93E7
:10141000DF93EC01888199818D349A4409F05DC095
:101420008A81813009F059C01B818091BF05181352
:1014300054C0153008F051C064E770E0CE010E943E
:10144000E909FE01EC58FF4F208131818217930793
:1014500009F043C0FE01ACEBB5E020E01217A1F1AA
:10146000C480D580E680F78050964D915D916D9156
:101470007C915397C416D506E606F70671F580856C
:101480008823F1F0813049F58185823030F58285FD
:10149000823018F533858FEF830F8A30F0F490E0B7
:1014A00080E0EC01CC0FDD1FCE0FDF1F4C855D858A
:1014B000415051094F30574280F40196831788F309
:1014C0002F5F7C961A96CACF81E0DF91CF911F9152
:1014D000FF90EF90DF90CF90089580E0F6CFFC0171
:1014E00020813181C90101978F3F9340A8F4828107
:1014F0009381AC01415051094115524068F4821763
:10150000930750F4848195810197883E934020F49D
:1015100081E09681923008F080E00895FF920F9369
:101520001F93CF93DF9300D000D000D01F92CDB790
:10153000DEB7FB018081918183359844C1F58281BA
:101540008130A9F584819581A681B781892B8A2B69
:101550008B2B69F1F38081E08F1548F18B0160E1FD
:1015600070E0CF010E94E909F8012089318928172C
:101570003907E9F4808591859A83898382859385EB
:101580009C838B83848595859E838D83FF82CE018A
:1015900001960E946F0A27960FB6F894DEBF0FBE21
:1015A000CDBFDF91CF911F910F91FF90089580E003
:1015B000F2CF0097C9F0FC01680F791F8FEF9FEF02
:1015C0006E177F0799F02191AC01422728E0CA01EC
:1015D0009695879540FF04C031E0832730EA932732
:1015E0002150AC01A1F7ECCF8FEF9FEF0895089544
:1015F000FC0183819481258136814189411106C096
:101600002817390790F4821B930B0895A90170E005
:1016100060E0480F591F611D711D4115544061055F
:10162000710530F4820F931F089590E080E00895D3
:101630008FEF93E00895CF92DF92EF92FF92CF93D6
:10164000DF93EC016A017B018A810E9467059C019E
:101650009A87898789894B815C8191E0882329F069
:101660004217530728F490E003C024173507D8F336
:10167000988B1F86CB86DC86ED86FE86DF91CF9128
:10168000FF90EF90DF90CF900895BF92CF92DF92BE
:10169000EF92FF920F931F93CF93DF93EC016A01B8
:1016A0007B018A810E9467058C019A8789878889D6
:1016B000B98881111AC01F862B813C8181E0BB2033
:1016C00029F02017310728F480E005C0021713071E
:1016D000D8F391E0988BDF91CF911F910F91FF90FC
:1016E000EF90DF90CF90BF900895CE010E94F80A4E
:1016F000BB2031F00817190730F480E01F86EBCFCC
:1017000080179107D0F38F85811107C091E09F87E3
:10171000CB86DC86ED86FE86DECF8B859C85AD850F
:10172000BE85C81AD90AEA0AFB0A8F819885B0E0FB
:10173000A0E0C816D906EA06FB0630F2188A1F8612
:10174000C3CFFC0147852FEF240F2A3070F4759624
:1017500080E021913191215031092F30374228F416
:101760008F5F4813F6CF81E0089580E008958F924F
:101770009F92AF92BF92CF92DF92EF92FF920F9320
:101780001F93CF93DF93CDB7DEB7A2970FB6F89430
:10179000DEBF0FBECDBFFC012081222309F490C023
:1017A0000181128123813481012B022B032B09F447
:1017B00087C00581168127813085012B022B032BE1
:1017C00009F47EC0A0919E06A43008F079C06B0198
:1017D0005C0110919D061A0F1370CE0101960E94B4
:1017E0007009E12EF12C02E20E9D40010F9D900C3C
:1017F000112494012B5E394FFE013196D901802FBF
:1018000001900D928A95E1F78BE0F501D9010190E5
:101810000D928A95E1F7C114D104C9F1C6010E9465
:10182000A10B8823A1F1F6018585811130C0448187
:10183000558166817781F50181819281A381B4818F
:10184000481759076A077B0711F5D401AE50BA4F04
:10185000F60184859E968C939E9797859F969C9380
:101860007596D401AE5DB94F80E0981731F02191A3
:1018700031912D933D938F5FF8CF82E28E9DF001E1
:101880008F9DF00D1124EA5CF94F81E080838091F7
:101890009E068F5F80939E0681E0A2960FB6F89415
:1018A000DEBF0FBECDBFDF91CF911F910F91FF9093
:1018B000EF90DF90CF90BF90AF909F908F90089562
:1018C00080E0EBCFCF93DF93EC0188818730A9F4E0
:1018D000CE0101960E94A10B811104C080E0DF912E
:1018E000CF910895198A1B8A1A8A88898823B1F3AF
:1018F000CE01DF91CF910C944109863039F5898969
:101900008F5F898B1B8A1A8A9889891738F18C898D
:101910009D8901969D8B8C8B25E02F8727E028835E
:1019200022E02AA74D815E816F8178854BA75CA755
:101930006DA77EA749855A856B857C854FA758ABD7
:1019400069AB7AAB9CAB8BAB81E08DAB888182308D
:1019500049F498898989891708F6CACF82E08F8768
:101960008883F4CF843009F0B9CF988989898917A1
:1019700008F0B4CF83E08F87888381E0B0CFFC018B
:1019800010821182128213821482158216821782AB
:10199000108611861286138614861586168617867B
:1019A000108A128A118A148A138ADC015596B99614
:1019B0001D921D92AE17BF07D9F708950F931F937D
:1019C000CF93DF93C0919607D091970788818111BB
:1019D00023C080919A07882309F47CC0009198075E
:1019E00010919907C80101970A9708F073C0CE01BA
:1019F00001960E94BF0C81E08F87088B888310922C
:101A000099071092980710929A0710929B07DF91FE
:101A1000CF911F910F910895813009F05BC08091A3
:101A20009A07882309F456C0409198075091990766
:101A3000CA0101978F30974208F04CC080919B07F4
:101A40002889821708F046C0E82FF0E03B96EE0F99
:101A5000FF1FEC0FFD1F51834083FE01769690E03F
:101A6000291731F041915191452B09F19F5FF8CF32
:101A70004EA95FA968AD79AD8A019B010F5F1F4F29
:101A80002F4F3F4F11F10EAB1FAB28AF39AF4D8336
:101A90005E836F83788719861A861B861C86198A4F
:101AA0001B8A1A8A1D8A1C8A92E09F87988310924B
:101AB00099071092980710929A079881913019F41B
:101AC0008F5F80939B0781E0A2CF01E010E020E0D0
:101AD00030E0D9CF80E09BCFCF92DF92EF92FF92A0
:101AE000CF93C0919C07209101012C1709F460C08D
:101AF0006B017C010E94580381111CC08091A605D6
:101B00008823C1F01092A605C0929C05D0929D0535
:101B1000E0929E05F0929F051092A1051092A005FB
:101B20001092A3051092A2051092A5051092A4058B
:101B30001092A705C330D1F4B701A6018AE597E05A
:101B40000E941B0B80E00E94E10410927207109229
:101B5000740710927507109276071092780710920A
:101B6000770710927A071092790720C0C63061F586
:101B700081E080937207109274071092750780932A
:101B8000760788E790E09093780780937707109224
:101B90007A0710927907C0927B07D0927C07E09277
:101BA0007D07F0927E0781E00E94E104C09301016D
:101BB000CF91FF90EF90DF90CF900895C53011F254
:101BC0008C2F877F99F7BECFC730C1F781E0809314
:101BD0007207109274071092750785E0809376075C
:101BE00088E790E0909378078093770790937A073F
:101BF00080937907D0CF0F931F93CF938C01C62F7B
:101C00000E9425086C2F6460C8010E9425086C2F73
:101C10006B7FC8010E94250883EC90E00197F1F7E3
:101C2000CF911F910F9108950F931F93CF93DF933F
:101C30008C01D62FC42F607F642B0E94FB0D80E1A6
:101C4000D89FB00111246C2BC801DF91CF911F9157
:101C50000F910C94FB0DCF93DF93CDB7DEB7289790
:101C60000FB6F894DEBF0FBECDBF28E0E0E2F1E092
:101C7000DE01119601900D922A95E1F7FC01208575
:101C8000261708F46FEF70E0660F771F21E030E051
:101C90002C0F3D1F620F731FFB016081606840E0E5
:101CA00028960FB6F894DEBF0FBECDBFDF91CF915F
:101CB0000C94140ECF93DF93EC0140E061E00E949E
:101CC000140E8BE39FE10197F1F78985882331F0AA
:101CD00060E0CE01DF91CF910C942B0EDF91CF917C
:101CE000089541E00E94140E81E090E00895EF9283
:101CF000FF920F931F93CF93DF937C018C01C6E378
:101D0000D0E0CE010E94D23AF80181938F01219652
:101D1000CC3AD105B1F7C701DF91CF911F910F9157
:101D2000FF90EF900895EF92FF920F931F93CF9340
:101D3000DF9392E1899F80011124E801C452DC4FB6
:101D40007B0102511C4FCE010E94D23AF7018193D0
:101D50007F0121960C171D07B1F781E0DF91CF912C
:101D60001F910F91FF90EF900895CF93DF93E8ECD0
:101D7000F5E08AE2DF011D928A95E9F7CCEBD5E028
:101D80008DE493E49983888381E08A831B8281E0D8
:101D900090E0A0E0B0E08C839D83AE83BF83888712
:101DA0009987AA87BB8764E370E0CE010E94E909A6
:101DB0009DAB8CABDF91CF910895CF93DF93EC0176
:101DC000FC01329684E7DF011D928A95E9F78DE4E4
:101DD0009AE49983888381E08A839091BF059B83ED
:101DE000ACEBB5E0FE0180E01A96981771F01696FC
:101DF0004D915D916D917C911997448355836683D4
:101E0000778310868F5F7C96EFCF64E770E0CE011A
:101E10000E94E909CC58DF4F99838883DF91CF91E5
:101E200008950F931F93CF93DF93603B710540F5A7
:101E3000EB018C010E94D90A9F938F938DEB91E067
:101E40009F938F9380EB90E08C1B9D0B9F938F93C0
:101E50000C0F1D1F1F930F930E94C63B2DB73EB75B
:101E6000285F3F4F0FB6F8943EBF0FBE2DBF181628
:101E7000190634F4C80FD91F81E0C03BD1050CF01E
:101E800080E0DF91CF911F910F910895CF93DF9361
:101E9000EC0109900020E9F72197C81BD90B9E019E
:101EA000215031092F3A310550F4BC01AE0182EFC7
:101EB00095E00E94710621E0C817D90709F020E0DB
:101EC000822FDF91CF910895FF920F931F93CF93AD
:101ED000DF93CDB7DEB7C05BD1090FB6F894DEBF94
:101EE0000FBECDBF8C01F62E0E946F0A81110EC06D
:101EF00080E0C055DF4F0FB6F894DEBF0FBECDBFF8
:101F0000DF91CF911F910F91FF9008952BEC31E05D
:101F1000FF2011F024EC31E0F80186818130C9F115
:101F20008BED91E03F932F939F938F93F8018581E1
:101F30008F9384818F9383818F9382818F9381810B
:101F40008F9380818F9382EE91E09F938F931F9266
:101F500080EB8F938E010F5F1F4F1F930F930E9493
:101F6000C63B0FB6F894DEBF0FBECDBF18161906DC
:101F70000CF0BECFBC01C8010E94110F882309F4E8
:101F8000B7CF8981882309F4B3CFC8010E94460FD7
:101F9000B0CF83ED91E0C6CF0F931F93CF93DF9324
:101FA000CDB7DEB7C05BD1090FB6F894DEBF0FBE68
:101FB000CDBF843098F5E82FF0E0EE0FFF1FEF5A09
:101FC000FE4F20813181882361F187E192E03F93C8
:101FD0002F939F938F938CE292E09F938F931F9206
:101FE00080EB8F938E010F5F1F4F1F930F930E9403
:101FF000C63B0FB6F894DEBF0FBECDBF181619064C
:10200000ACF080E0C055DF4F0FB6F894DEBF0FBED6
:10201000CDBFDF91CF911F910F91089520E232E063
:10202000D4CF27E032E08FE092E0D1CFBC01C801ED
:102030000E94110F882329F38981882311F3C80195
:102040000E94460FDFCFFB0101900020E9F7319796
:10205000AF01461B570BDC01ED91FC910280F3812F
:10206000E02D09948F929F92AF92BF92EF92FF92D0
:102070000F931F93CF93DF93CDB7DEB7A1970FB622
:10208000F894DEBF0FBECDBF7C01FA01CB0119A2CF
:10209000223008F42AE08E010F5D1F4F822E912C12
:1020A000B12CA12CBF01A50194010E94F83AF901BD
:1020B000CA016A300CF5605DD8016E938D01232B47
:1020C000242B252B79F790E080E0109721F0BD01BB
:1020D000C7010E942310A1960FB6F894DEBF0FBE71
:1020E000CDBFDF91CF911F910F91FF90EF90BF90E7
:1020F000AF909F908F900895695CDECFAC0170E047
:1021000060E02AE08BE495E00C943210CF92DF92ED
:10211000EF92FF92CF93DF931F92CDB7DEB77C0192
:1021200063E870E08BE495E00E944D06B7018BE414
:1021300095E00E944D0667E770E08BE495E00E9411
:102140004D06CE0101966C0180915608909157087A
:10215000009711F48DE598E08C159D0570F5C81A6F
:10216000D90A0D2C000CEE08FF082AE0B701A601E1
:10217000F7FE0DC06DE28BE495E00E944606442711
:102180005527BA014C195D096E097F092AE08BE4D5
:1021900095E00E9432106EE372E08BE495E00E94BD
:1021A00023108BE495E00E945A070F90DF91CF91A6
:1021B000FF90EF90DF90CF900895D12CC12CD1CF1C
:1021C0000F931F93CF93DF93EC010E944D068C0178
:1021D0006EE372E0CE010E942310800F911FDF9109
:1021E000CF911F910F910895AF92BF92CF92DF923E
:1021F000EF92FF920F931F93CF93DF93CDB7DEB78C
:10220000C855D1090FB6F894DEBF0FBECDBFE82E7A
:10221000D42EC52EB62EA72EF22E809147078111FF
:1022200048C069EF75E0EE2011F067E076E082EFDC
:1022300095E00E944D062AE04D2D5C2D6B2D7A2DE8
:1022400082EF95E00E9432106CE782EF95E00E94E9
:1022500046066DED75E0FF2031F066EE75E0EE208C
:1022600011F06FEE75E082EF95E00E944D066CE78D
:1022700082EF95E00E944606B80182EF95E00E9449
:1022800023106EE372E082EF95E00E942310C85A9B
:10229000DF4F0FB6F894DEBF0FBECDBFDF91CF91F9
:1022A0001F910F91FF90EF90DF90CF90BF90AF9074
:1022B0000895EE2009F450C089E795E0222311F03B
:1022C00082E595E01F930F93AF92BF92CF92DF927A
:1022D0009F938F931F9288E58F93CE0101966C0197
:1022E0009F938F930E9421388C0101970FB6F89429
:1022F000DEBF0FBECDBF8735910548F6B801C601D8
:102300000E94D90A28E530E07901E01AF10A9F938A
:102310008F938BE495E09F938F93FF92EF92C6018A
:10232000800F911F9F938F930E9421380FB6F894CE
:10233000DEBF0FBECDBF181619060CF0A8CF8E1544
:102340009F0508F0A4CFA801480F591FB60182EFDE
:1023500095E00E9471069BCF8EEB95E0222309F455
:10236000B1CF8FE995E0AECFCF93DF93C091A805B1
:10237000D091A90564EF70E08BE495E00E944D06D2
:10238000E091A805F091A905848561EA70E08823B1
:1023900011F062EB70E08BE495E00E944D0668EE70
:1023A00070E08BE495E00E944D06888199810E943F
:1023B0007E106BED70E08BE495E00E944D068A8103
:1023C0009B810E947E1065EC70E08BE495E00E949A
:1023D0004D068C819D810E947E1069EB70E08BE43C
:1023E00095E00E944D068E8162E970E0813011F423
:1023F00069E970E08BE495E0DF91CF910C94E010F7
:10240000CF93DF9320910001222391F0EC0168E645
:1024100070E08BE495E00E944D06BE018BE495E0F0
:102420000E94E0108BE495E0DF91CF910C945A0765
:10243000DF91CF9108952F923F924F925F926F92CA
:102440007F928F929F92AF92BF92CF92DF92EF9244
:10245000FF920F931F93CF93DF93CDB7DEB7AE9765
:102460000FB6F894DEBF0FBECDBF80919C078330BE
:10247000A1F581E080936E0780936F0761E09091F2
:102480006D07981360E080916C070E94B304409040
:10249000AC074091AD07342CD12CC12C441558F415
:1024A000E42FF0E0EE0FFF1FEF54F84FC180D28011
:1024B00033243394340EE0919C07E83008F08BC04D
:1024C000F0E0EB59FD4E0C949E3BED127612731228
:1024D0007E12E012E312E612E912853051F21092F8
:1024E0006E0780E0C9CF42E04DA30AC040919B0730
:1024F00033243394340E51E05DA302C083E08DA3F6
:102500005090BF0580917404811169C051106AC058
:1025100081E08EA380919E06811101C01EA2809150
:102520009507882309F4CDC180909807909099076A
:1025300020909A07A090AE07B090AF074091B007E7
:102540005091B1075AA749A78EEB92E00E94001262
:102550008E010E5E1F4FCE01829638010BA71CA77D
:1025600020E2F30121933F018E179F07D1F71AA2B2
:10257000AE014F5F5F4F7A01CE01419658A74FA33E
:102580004DA7FEA620E2EFA1F8A52193F8A7EFA39F
:102590008E179F07C1F7198A1CA21BA2FDA1F83054
:1025A00008F01AC2EF2FF0E0E852FD4E0C949E3B6B
:1025B000F51219134F1372137A14BB14C614D114E5
:1025C00094E09DA39DCFE5E0EDA39ACFF6E0FDA3B7
:1025D00097CF47E089CF58E08FCF1DA291CF92E0EF
:1025E0009EA39DCFE1E0EEA39ACF4EE752E0BE015D
:1025F0006C5D7F4FC8010E94880941E652E02220AD
:1026000089F048E752E0BE016D5D7F4FC7010E942F
:102610008809A401BE016D5D7F4FC7010E949D091D
:1026200041E752E0BE016D5D7F4FC7010E948809FE
:1026300097C046E552E0BE016C5D7F4FC8010E9425
:102640008809432D50E0BE016C5D7F4FC8010E9498
:102650009D0944E552E0BE016C5D7F4FC8010E94B8
:102660008809442D50E0BE016C5D7F4FC8010E9477
:102670009D0947E352E02220A9F24EE452E0BE0158
:102680006D5D7F4FC7010E948809A401BE016D5D89
:102690007F4FC7010E949D0947E452E0C3CF4BE240
:1026A00052E0BE016C5D7F4FC8010E948809432D36
:1026B00050E0BE016C5D7F4FC8010E949D0949E258
:1026C00052E0BE016C5D7F4FC8010E948809442D15
:1026D00050E0BE016C5D7F4FC8010E949D094AE138
:1026E00052E0A0CF4DE052E0BE016C5D7F4FC801CB
:1026F0000E948809432D50E0BE016C5D7F4FC801E8
:102700000E949D094BE052E0BE016C5D7F4FC80105
:102710000E948809442D50E0BE016C5D7F4FC801C6
:102720000E949D0944E052E0BE016D5D7F4FC701EC
:102730000E948809A501BE016D5D7F4FC7010E94FF
:102740009D0942E052E0BE016D5D7F4FC7010E94CE
:102750008809A601BE016D5D7F4FC7010E949D09DA
:10276000852D49E0451508F489E090E29F8F5EA130
:1027700095E4523039F09EA1913019F0552009F4BA
:1027800036C190E598A3805D89A38EEA92E00E940D
:10279000001295EC892E9DE9992E9CE1A92E91E8D5
:1027A000B92EF80181918F01A5019401282763E9D1
:1027B00071E080E091E00E94E83A4B015C01E6158F
:1027C000F70579F785EC482E8DE9582E8CE1682EB7
:1027D00081E8782EF70181917F01A30192012827DA
:1027E00063E971E080E091E00E94E83A2B013C014E
:1027F0004FA158A54E175F0769F78091930788236B
:1028000069F080918B0790918C07A0918D07B09112
:102810008E0788159905AA05BB05D1F060E0809167
:10282000890790918A070E942B0E6BA57CA5809149
:10283000890790918A070E94231080928B079092BB
:102840008C07A0928D07B0928E0781E0809393074A
:1028500085EA92E00E94001280919407882369F033
:1028600080918F0790919007A0919107B091920766
:1028700084159505A605B705D1F061E0809189071B
:1028800090918A070E942B0E6DA57EA580918907E5
:1028900090918A070E94231040928F0750929007D0
:1028A000609291077092920781E0809394078CE97F
:1028B00092E00E9400128FE892E00E9400121092B3
:1028C0000001AE960FB6F894DEBF0FBECDBFDF910C
:1028D000CF911F910F91FF90EF90DF90CF90BF901D
:1028E000AF909F908F907F906F905F904F903F90B0
:1028F0002F90089547EF51E0BE016C5D7F4FC801F6
:102900000E948809432D50E0BE016C5D7F4FC801D5
:102910000E949D0945EF51E0BE016C5D7F4FC801EB
:102920000E948809442D50E0BE016C5D7F4FC801B4
:102930000E949D094EEE51E0BE016D5D7F4FC701C3
:102940000E948809A501BE016D5D7F4FC7010E94ED
:102950009D094CEE51E0BE016D5D7F4FC7010E94A5
:102960008809A601BE016D5D7F4FC7010E949D09C8
:1029700046EE51E057CE47ED51E0BE016C5D7F4F12
:10298000C8010E94880940ED51E04CCE40EC51E076
:10299000BE016C5D7F4FC8010E94880946EB51E083
:1029A00041CE4DEA51E0BE016C5D7F4FC8010E94EF
:1029B000880949A55AA5BE016C5D7F4FC8010E94D8
:1029C0009D0948EA51E0BE016C5D7F4FC8010E943D
:1029D000880948E951E026CE48E851E0BE016C5D27
:1029E0007F4FC8010E94880940E851E01BCE8FE468
:1029F00088A38BE4C9CE85ED8093BC008091CC0484
:102A00009091CD04A091CE04B091CF040796A11D62
:102A1000B11D23E0B695A795979587952A95D1F78F
:102A20002091BC0024FD03C0109219050895409127
:102A3000CC045091CD046091CE047091CF04452B0D
:102A4000462B472B69F30097A105B10541F02AE217
:102A50002A95F1F700C00197A109B109E1CF809152
:102A6000CB040C940A050F931F93CF93DF9300D0F0
:102A7000CDB7DEB7009761F1FC0101900020E9F7C6
:102A80009F01255031092817390711F58B011A824A
:102A9000198240E150E0BE016F5F7F4F0E94063710
:102AA000E981FA813097A1F02081211111C06115CF
:102AB0007105F1E08F07910558F4F8017183608387
:102AC00081E00F900F90DF91CF911F910F910895AA
:102AD00080E0F7CF0C947D360C947D36FF920F93F7
:102AE0001F93CF93DF93EC01F62E08811981C80163
:102AF0000E94D23AF81621F06F2DC8010E94DA3AEE
:102B0000CE01DF91CF911F910F91FF900895EF9229
:102B1000FF920F931F93CF93DF9300D0CDB7DEB713
:102B200064E370E08CEB95E00E94E9099093F10575
:102B30008093F0058CEBE82E85E0F82E10E000E0A5
:102B40001A830983F70161917F01CE0101960E94EA
:102B50006E150F5F1F4F0633110591F70F900F9001
:102B6000DF91CF911F910F91FF90EF900895EF9219
:102B7000FF920F931F93CF93DF9300D0CDB7DEB7B3
:102B80008C0164E770E00E94E909F801EC58FF4FFE
:102B90009183808386E3E82EF12CFA82E982F801A2
:102BA00061918F01CE0101960E946E15FFEFEF1A21
:102BB000FF0A8CEAE816F10481F70F900F90DF917D
:102BC000CF911F910F91FF90EF900895CF92DF92D8
:102BD000EF92FF921F93CF93DF93CDB7DEB7C65727
:102BE000D1090FB6F894DEBF0FBECDBF10E02AE0CA
:102BF0003091BF05131708F08BC0219FF0011124FD
:102C0000E454FA4FC088D188E288F388C616D70604
:102C1000E806F90611F01F5FEBCFCE0101960E9486
:102C2000770ECE0101960E94020A811104C0CE01E6
:102C300001960E94DD0E6AE09CE1412F50E09A016E
:102C40002F5F3F4F8091BF058217130679F170F116
:102C5000649FD001659FB00D1124A853BA4F629FA5
:102C6000F001639FF00D1124E853FA4F862F019075
:102C70000D928A95E1F7949FD001959FB00D112494
:102C800041E050E04C0F5D1FA40FB51F1496929FBA
:102C9000F001939FF00D1124E40FF51F3496892F56
:102CA00001900D928A95E1F71F5FC7CF8150809305
:102CB000BF058C839AE0899FF0011124E853FA4FF5
:102CC000DF011D929A95E9F79CE1E1E0F0E0EC0F5D
:102CD000FD1F899FE00DF11D11243496DF011D9227
:102CE0009A95E9F70E948715CE0101960E94B715C3
:102CF00081E0CA58DF4F0FB6F894DEBF0FBECDBFDC
:102D0000DF91CF911F91FF90EF90DF90CF900895CA
:102D100080E0EFCF4F925F926F927F92AF92BF921F
:102D2000DF92EF92FF920F931F93CF93DF93CDB774
:102D3000DEB7CA5AD1090FB6F894DEBF0FBECDBFB9
:102D4000C056DF4F1882C05AD040CF55DF4F18828F
:102D500019821A821B82C15AD040CB55DF4F18828C
:102D600019821A821B82C55AD040C755DF4F19827B
:102D70001882C95AD04001E01CE19AE0D92E809116
:102D8000D107882309F416C28BE0E6ECF7E0DE01F8
:102D9000A056BF4F01900D928A95E1F71092C60799
:102DA0001092C7071092C8071092C9071092CA075D
:102DB0001092CB071092CC071092CD071092CE073D
:102DC0001092D0071092CF071092D1078091D607AA
:102DD0009091D707A091D807B091D9074091D20719
:102DE0005091D3076091D4077091D50741155105D3
:102DF0006105710521F441E050E060E070E000976A
:102E0000A105B10521F481E090E0A0E0B0E04090A0
:102E1000C0055090C1056090C2057090C30544166E
:102E200055066606770669F44090C4055090C505BE
:102E30006090C6057090C705481659066A067B065D
:102E400091F04093C0055093C1056093C205709303
:102E5000C3058093C4059093C505A093C605B093A0
:102E6000C7050E94871589E2EDE9F7E0DE01A95860
:102E7000BF4F01900D928A95E1F7C056DF4F8881D0
:102E8000C05AD040823009F010C1CF55DF4F888141
:102E90009981AA81BB81C15AD040892B8A2B8B2B67
:102EA00009F40EC1CB55DF4F488159816A817B817E
:102EB000C55AD040411551056105710509F400C19D
:102EC0009091BF058CEBE82E85E0F82EF70180E0AD
:102ED000981769F03A96468057806084718444154B
:102EE00055056605770509F460C08F5FF1CF943012
:102EF00008F0E6C0CE0101960E94770ECE01019641
:102F00000E94020A811104C0CE0101960E94DD0ECA
:102F10008091BF05D89EF0011124E454FA4FCF559B
:102F2000DF4F488159816A817B81C15AD0404487F3
:102F3000558766877787CB55DF4F488159816A81EE
:102F40007B81C55AD040408B518B628B738BC755A8
:102F5000DF4F28813981C95AD040358B248B91E0CD
:102F6000980F9093BF059C83819FC0011124FC01A1
:102F7000349621E030E02C0F3D1FE20FF31FDF01FC
:102F8000212F1D922A95E9F7A1E0B0E0AC0FBD1FFB
:102F90008A0F9B1FFC0144835583668377830E94BD
:102FA0008715CE0101960E94B715CE0101960E94A9
:102FB000770ECE0101960E94020A811104C0CE0153
:102FC00001960E94DD0E4091BF05CB55DF4F488032
:102FD00059806A807B80C55AD040B12CA12CA416A0
:102FE00008F06EC0F70180899189A289B3899501A3
:102FF0002F5F3F4FFAE0EF0EF11C84159505A605F3
:10300000B70509F04CC0CE0189589F4F0E94A10B13
:10301000882309F455C01A9DC0011B9D900D1124F1
:10302000FC01349621E030E02C0F3D1FE20FF31F2E
:10303000DF01212F1D922A95E9F7E1E0F0E0EC0F86
:10304000FD1FE80FF91F4482558266827782008750
:10305000CC57DF4F2881C458D0402187CD57DF4F50
:103060002881C358D0402287CA57DF4F2881C658CD
:10307000D0402387A7E7B0E0AC0FBD1F55960C9654
:10308000E1E0F0E0EC0FFD1FE80FF91F80E02817EA
:1030900041F04D915D91419351938F5FF8CF59016C
:1030A0009ECFCE0101960E94B715BE0169587F4F91
:1030B000CE0180569F4F0E94B70BF82E811103C09E
:1030C00000937404F12C67E771E08BE495E00E94B3
:1030D0004D0664E571E0FF2011F069E671E08BE4D4
:1030E00095E00E944D0660E771E08BE495E00E9458
:1030F0004D06C056DF4F8881C05AD04061E371E071
:10310000813011F46FE371E08BE495E00E944D068D
:103110006BE471E08BE495E00E944D06CC57DF4FE5
:103120008881C458D0406BE071E0811102C061E138
:1031300071E08BE495E00E944D0667E271E08BE45C
:1031400095E00E944D06CF55DF4F488159816A8135
:103150007B81C15AD0402AE08BE495E00E94321076
:1031600061E271E08BE495E00E944D06CB55DF4FA4
:10317000488159816A817B81C55AD0402AE08BE41D
:1031800095E00E94321067E171E08BE495E00E94C7
:103190004D0640919E0650E070E060E02AE08BE42E
:1031A00095E00E9432106EE372E08BE495E00E949D
:1031B0002310E5CDC655DF4F0FB6F894DEBF0FBE26
:1031C000CDBFDF91CF911F910F91FF90EF90DF90D6
:1031D000BF90AF907F906F905F904F9008954F9207
:1031E0005F926F927F928F929F92AF92BF92CF9297
:1031F000DF92EF92FF920F931F93CF93DF93CDB7A0
:10320000DEB7AB970FB6F894DEBF0FBECDBF8C0113
:103210007B01CB010E946F0A882309F48BC0D8017F
:103220001C968C911C97F7016081718142815381BA
:1032300024813581D6808823C9F0ED91FC911197C6
:10324000E617F70799F41296ED91FC911397E4179E
:10325000F50761F41496ED91FC911597E217F307C9
:1032600029F416969C919D1509F464C05524539435
:10327000D8011B968C918111512CF8018781908582
:10328000A185B2850196A11DB11D0097A105B105CB
:1032900021F481E090E0A0E0B0E05E01F1E2AF0E49
:1032A000B11CE4E0CE2EF5011192CA94E9F7E3E5F2
:1032B000F8E4FC8BEB8BE1E0ED8BDE8A8F8B988F53
:1032C000A98FBA8F7C8F6B8F5E8F4D8F38A32F8F16
:1032D00060E170E0CE0143960E94E9099CA38BA3B4
:1032E0006E01F5E2CF0ED11CCE0143964C01FCEDF0
:1032F000AF2EF3E0BF2EA81AB90A92E1599EA00C96
:10330000B11C1124C501880D991D9A838983D401AC
:103310006D914D01CE0101960E946E15C814D9041D
:1033200089F7BE016F5F7F4F852D0E94930E81113B
:1033300018C080E0AB960FB6F894DEBF0FBECDBFCD
:10334000DF91CF911F910F91FF90EF90DF90CF9081
:10335000BF90AF909F908F907F906F905F904F90B5
:103360000895BE016F5F7F4FC8010E948E0A8823B7
:1033700001F389849A849EA28DA2AB84BC84B8A6F2
:10338000AFA26D847E847AA669A6442443948C817E
:10339000813009F0412C4BA6C6010E946F0A882398
:1033A00041F2F701208131818216930611F62281C4
:1033B0003381A216B30609F0BCCF24813581621691
:1033C000730609F0B6CF96814912B3CF97E0F601A4
:1033D000D80101900D929A95E1F74D815E816F8140
:1033E0007885D80117964D935D936D937C931A97CA
:1033F0001B965C921B9791E01C969C931C971D96C4
:103400001C9298CF1F920F920FB60F9211242F93F8
:103410003F934F935F936F937F938F939F93AF935C
:10342000BF93EF93FF938091B900887F803609F4B2
:103430004AC0F0F5883209F4A7C018F5803109F4C4
:103440009BC0B8F4882309F4F9C0883009F494C00B
:10345000FF91EF91BF91AF919F918F917F916F916C
:103460005F914F913F912F910F900FBE0F901F9042
:103470001895883109F488C0803251F78093180577
:1034800014C0803409F49DC040F48033B9F388330C
:10349000F9F68093180585ECB0C0803509F485C035
:1034A000883509F496C0883499F60E94FB14D0CF71
:1034B000883909F48CC038F5883729F050F48836FB
:1034C00011F0803729F683E08093190510921705D3
:1034D00057C0883809F47BC0803919F0803809F06A
:1034E000B7CF80911705803208F071C0E0911705C1
:1034F00081E08E0F809317058091BB00F0E0E950CA
:10350000FB4F80833DC0803B39F0E0F4803A09F402
:1035100079C0883A09F09CCF84E080931905109215
:10352000F4041092F304E091F104F091F20409958F
:103530008091F30481110FC081E08093F304109215
:10354000D10409C0803C09F4A6CF883C09F4A3CF7C
:10355000883B09F07DCFE091F40481E08E0F8093E9
:10356000F404F0E0EF52FB4F80818093BB00909118
:10357000F4048091F30429C080913E058093BB0040
:1035800085EC8093BC0064CF90913D0580913C0513
:10359000981758F5E0913D0581E08E0F80933D0529
:1035A000F0E0E45EFA4F8081E9CFE0913D0581E0F3
:1035B0008E0F80933D058091BB00F0E0E45EFA4FF2
:1035C000808390913D0580913C059817C8F285E86D
:1035D000D8CFE0913D0581E08E0F80933D0580912D
:1035E000BB00F0E0E45EFA4F808380911B058111FF
:1035F0005CCF81E080931A0584EA8093BC0010922E
:10360000190526CF85EC8093BC0010921905809196
:103610001705803230F4E0911705F0E0E950FB4FD8
:1036200010826091170570E0E091F504F091F604C6
:1036300087EF94E00995109217050ACF10921805AC
:1036400034CF1F920F920FB60F9211242F933F93F6
:103650008F939F93AF93BF9380917E0490917F044B
:10366000A0918004B091810430917D0423E0230F68
:103670002D3758F50196A11DB11D20937D0480932F
:103680007E0490937F04A0938004B0938104809182
:10369000820490918304A0918404B09185040196E2
:1036A000A11DB11D8093820490938304A093840490
:1036B000B0938504BF91AF919F918F913F912F91CE
:1036C0000F900FBE0F901F90189526E8230F0296BB
:1036D000A11DB11DD2CF1F920F920FB60F921124D0
:1036E0002F933F934F935F936F937F938F939F930A
:1036F000AF93BF93EF93FF938BE495E00E94EE06A8
:10370000FF91EF91BF91AF919F918F917F916F91B9
:103710005F914F913F912F910F900FBE0F901F908F
:1037200018951F920F920FB60F9211242F938F931B
:103730009F93EF93FF93E0915B05F0915C0580818F
:10374000E0916105F091620582FD1BC0908180913E
:1037500064058F5F8F7020916505821741F0E091BD
:103760006405F0E0E55BFA4F958F80936405FF9167
:10377000EF919F918F912F910F900FBE0F901F90FF
:1037800018958081F4CF1F920F920FB60F921124DB
:103790002F933F934F935F936F937F938F939F9359
:1037A000AF93BF93EF93FF93E0916D04F0916E049C
:1037B000309749F0A685B7858585968D91FF14C011
:1037C0009C918923A1F4FF91EF91BF91AF919F91BB
:1037D0008F917F916F915F914F913F912F910F90BA
:1037E0000FBE0F901F9018959C91892361F7A389B4
:1037F000B4899C918589809589238C938689978942
:103800000197F1F7608D718DA685B785558538E0F4
:1038100020E0CB010197F1F7822F90E095958795F5
:10382000282F4C91452309F02068315091F7868D5F
:1038300081FD209580916C0490E001968F7399270B
:1038400030916B04381799F0A0916C04B0E0A55D3D
:10385000BB4F2C9380936C04828D938D0197F1F76D
:10386000A389B4898C919589892B8C93ACCF868D53
:103870008160868FF1CF0F931F93CF93DF9300D09A
:10388000CDB7DEB7009731F1FC012081222311F181
:103890008B011A8219824AE050E0BE016F5F7F4FB0
:1038A0000E940637E981FA813097A1F02081211129
:1038B00011C061157105F1E08F07910558F4F80109
:1038C0007183608381E00F900F90DF91CF911F9102
:1038D0000F91089580E0F7CFEF92FF920F931F931F
:1038E000CF93DF93109242051092410588EE93E04A
:1038F000A0E0B0E08093430590934405A093450574
:10390000B09346052DE531E03093400520933F0507
:1039100010924E0510924D0580934F0590935005DF
:10392000A0935105B09352058FE691E090934C051A
:1039300080934B0585EC90E0909358058093570554
:1039400084EC90E090935A058093590580EC90E0C8
:1039500090935C0580935B0581EC90E090935E050D
:1039600080935D0582EC90E09093600580935F0505
:1039700086EC90E090936205809361051092640557
:103980001092650510926605109267051092E9077E
:103990001092ED071092EC071092EE0787EB91E082
:1039A0009093E8078093E707E3E0F8E08FE398E07F
:1039B000108214821382158236968E179F07C1F7E4
:1039C00086E091E090934A088093490882E091E074
:1039D00090934C0880934B0884E080934D0880932B
:1039E0004E088AE091E090934808809347088AE067
:1039F00090E09093500880934F0884EF91E090936B
:103A00005208809351081092550810925408109251
:103A100043081092440810924508109246081092EC
:103A200053081092DD071092DC078BEA91E0909327
:103A3000DB078093DA071092E30787E28093DE07C3
:103A400080E18093E40782E08093E5071092E60727
:103A500010929C07EDE9F7E089E2DF011D928A955B
:103A6000E9F71092C6071092C7071092C807109284
:103A7000C9071092CA071092CB071092CC07109278
:103A8000CD071092CE071092D0071092CF07109258
:103A9000D10781E090E0A0E0B0E08093D20790935E
:103AA000D307A093D407B093D5078093D6079093FC
:103AB000D707A093D807B093D907CF010E94BF0CB6
:103AC0008CE997E090939707809396071092990757
:103AD0001092980710929A0710929B078AED97E030
:103AE00090938A078093890710928B0710928C0716
:103AF00010928D0710928E0710928F0710929007E8
:103B000010929107109292071092930710929407C7
:103B1000109295078AE080937F0761E060938007A9
:103B200088E290E090938207809381071092830748
:103B300010928407109285071092860710928707CB
:103B40001092880781E1809370071092710710929C
:103B500072071092730710927407109275071092F3
:103B60007607109278071092770710927A071092D2
:103B7000790710927B0710927C0710927D071092B4
:103B80007E078CE080936C0760936D0710926E0740
:103B900010926F078FE991E090935B0780935A072B
:103BA0008EE080935C078EE492E090935E078093B2
:103BB0005D0782E390E09093600780935F0789E15F
:103BC00090E09093620780936107109264071092CF
:103BD00063071092650710926607109267071092AC
:103BE00068071092690710926A0710926B0783E9C1
:103BF00091E09093520780935107109253078AEFF8
:103C000090E09093550780935407109256071092B6
:103C1000570710925807109259071092F505109205
:103C2000F40588EE93E0A0E0B0E08093F605909371
:103C3000F705A093F805B093F90581E891E090931A
:103C4000F3058093F205109209061092080610926F
:103C50000B0610920A0610920D0610920C06109296
:103C60000F0610920E06809110068E7F8D7F809336
:103C700010068695817068278FE00E94B30461E08A
:103C80008FE00E942B05E3E5F6E0E491E093020665
:103C9000EFE3F6E0E491F0E0EE0FFF1FEA5DF94F8D
:103CA00085919491909304068093030660E080E1EF
:103CB0000E942B058091100681FD04C061E080E127
:103CC0000E94B30480E18093FE05E4E5F6E0E49110
:103CD000E093FF05E0E4F6E0E491F0E0EE0FFF1F73
:103CE000E45EF94F859194919093010680930006CC
:103CF00080E895E2A0E0B0E0809311069093120670
:103D0000A0931306B093140685E196E00E94700913
:103D100087E396E00E94700989E596E00E947009A9
:103D20008BE796E00E94700910929D0610929E0605
:103D300010929F061092A0061092A1061092A20661
:103D40001092A3068CED95E0A0E0B0E08093A4066D
:103D50009093A506A093A606B093A706E8EAF6E01E
:103D60001192B7E0E031FB07D9F7109211071092DA
:103D70001007109212071092130710921407109256
:103D800015071092160710921707E8E1F7E089E28D
:103D9000DF011D928A95E9F71092410710924207C0
:103DA000109243071092440710924507109246075D
:103DB00010924707109248078EE4E82E82E0F82E12
:103DC000F0924A07E0924907C2E3D0E0D0934C0753
:103DD000C0934B0709E110E010934E0700934D0785
:103DE00010924F0710925007CF010E94BF0C86E33C
:103DF000ECEBF5E0DF011D928A95E9F70E94B50E24
:103E0000F092AF05E092AE05D093B105C093B00536
:103E10001093B3050093B2051092B4051092B50546
:103E20001092B6051092B7051092B8058FEF8093E7
:103E3000B9051092BA051092BB058EEA95E09093F1
:103E4000A9058093A8058AE597E09093AB05809338
:103E5000AA052CE937E03093AD052093AC0590938B
:103E6000990580939805D0939B05C0939A0510926D
:103E70009C0510929D0510929E0510929F05109230
:103E8000A1051092A0051092A3051092A205109210
:103E9000A5051092A4051092A6051092A705DF9122
:103EA000CF911F910F91FF90EF900895CF93DF93E3
:103EB000CDB7DEB7C05FD1090FB6F894DEBF0FBE35
:103EC000CDBF789484B5826084BD84B5816084BDA3
:103ED00085B5826085BD85B5816085BD80916E00A8
:103EE000816080936E0010928100809181008260D9
:103EF0008093810080918100816080938100809116
:103F000080008160809380008091B1008460809304
:103F1000B1008091B00081608093B00080917A0000
:103F2000846080937A0080917A00826080937A0026
:103F300080917A00816080937A0080917A00806815
:103F400080937A001092C100E0915B05F0915C05CE
:103F500082E08083E0915705F09158051082E0914E
:103F60005905F0915A0580E1808310926305E09134
:103F70005F05F091600586E08083E0915D05F0913A
:103F80005E05808180618083E0915D05F0915E0532
:103F9000808188608083E0915D05F0915E0580817D
:103FA00080688083E0915D05F0915E0580818F7D62
:103FB00080836DE173E08BE495E00E944D064091B3
:103FC0005C0850E070E060E020E18BE495E00E9446
:103FD000321065E173E08BE495E00E944D0680911C
:103FE0005C0880FF0CC26CE073E08BE495E00E94FB
:103FF0004D0681E090915C0891FF0EC0882329F066
:104000006CE78BE495E00E9446066DEF72E08BE46E
:1040100095E00E944D0681E090915C0892FF0EC0F1
:10402000882329F06CE78BE495E00E94460663EF55
:1040300072E08BE495E00E944D0681E090915C086F
:1040400093FFDFC1882329F06CE78BE495E00E94A1
:1040500046066AEE72E08BE495E00E944D066EE340
:1040600072E08BE495E00E9423108BE495E00E94BF
:104070005A0782EB93E00E9486102091110630913E
:104080001206409113065091140610920D061092DC
:104090000C0610920B0610920A0610920906109256
:1040A000080660E079E08DE390E00E947F3BB90173
:1040B000C90103972430310510F481E090E090931A
:1040C0000F0680930E069091FE05963108F05FC0B2
:1040D000F901F695E795E431F10508F497C1739776
:1040E000F0930906E09308066630710508F491C163
:1040F000B9016550710970930B0660930A06B90106
:10410000660F771F260F371F36952795369527950B
:104110002D30310508F480C12C50310930930D0643
:1041200020930C062091680084E0983048F031E03C
:104130009E3008F430E081E001C0880F3A95EAF73C
:10414000822B809368002DE630E0983050F02BE60B
:1041500030E09E3030F02CE630E0963110F030E068
:1041600020E03093060620930506292F30E0983092
:1041700008F055C181E001C0880F9A95EAF7809355
:10418000070680910E0690910F060197F1F7809136
:104190000C0690910D06892B49F1E0916D04F09188
:1041A0006E0425E0E23FF20709F1309739F0A38968
:1041B000B4899C918589809589238C938091100680
:1041C0008E7F8093100610926C0410926B0482EF25
:1041D00095E090936E0480936D04E0910506F09154
:1041E0000606808190910706892B80838DEA93E0F3
:1041F0000E948610FCEBEF2EF5E0FF2E10E000E0B1
:10420000C8010E94D23AD7018D937D010F5F1F4FE5
:1042100006331105A9F78091BC059091BD058D3439
:10422000934469F58091BE05813049F58091BF05C1
:10423000853028F58091C0059091C105A091C205F7
:10424000B091C305892B8A2B8B2BC9F08091C405B3
:104250009091C505A091C605B091C705892B8A2B01
:104260008B2B69F064E370E08CEB95E00E94E90928
:104270002091F0053091F1058217930721F00E94FB
:10428000B50E0E948715CE0101960E94770ECE01D1
:1042900001960E94020A811108C0CE0101960E9477
:1042A000DD0ECE0101960E94B7158091C405909154
:1042B000C505A091C605B091C7054091C0055091B4
:1042C000C1056091C2057091C30541155105610595
:1042D000710521F441E050E060E070E04093D207C6
:1042E0005093D3076093D4077093D5070097A10527
:1042F000B10521F481E090E0A0E0B0E08093D60722
:104300009093D707A093D807B093D90710E0FF2464
:10431000F39462E0E62E7AE0D72E0CE1E5E0CE2EB3
:104320008091BF05181708F030C1C652DF4F1882C0
:10433000CA5DD040C552DF4F188219821A821B8293
:10434000CB5DD040C152DF4F188219821A821B8286
:10435000CF5DD040CD51DF4F19821882C35ED0406F
:10436000CE018F549F4F0E94BF0C8091BF0518173C
:1043700008F041C0C652DF4FE882CA5DD040A12E8E
:10438000B12CDA9CF001DB9CF00D1124E454FA4FBF
:1043900084859585A685B785C552DF4F8883998327
:1043A000AA83BB83CB5DD04080899189A289B389E0
:1043B000C152DF4F88839983AA83BB83CF5DD040EE
:1043C00084899589CD51DF4F99838883C35ED0401E
:1043D000CE0101960E94770ECE0101960E94020A3C
:1043E00081112AC070E060E0CE0186529F4F0E948A
:1043F000B70B811102C0F09274041F5F91CF80E06F
:10440000F9CD81112CCE6FEC72E025CEE1E0F0E029
:1044100067CE61E070E06FCE21E030E07FCE9E306D
:1044200040F42850310981E001C0880F2A95EAF74D
:10443000A6CE2E503109F7CF8C81181798F60A9D19
:10444000F0010B9DF00D112421E030E02C0F3D1FF9
:10445000E20FF31F8085882329F284819581A6814C
:10446000B781C152DF4F488159816A817B81CF5D1D
:10447000D04084179507A607B70709F0B3CFC552F8
:10448000DF4F488159816A817B81CB5DD040CB541D
:10449000DF4F488359836A837B83C55BD040C75411
:1044A000DF4F88839983AA83BB83C95BD040CD51FA
:1044B000DF4F88819981C35ED040CC53DF4F998311
:1044C0008883C45CD04081E09185913009F080E020
:1044D000C254DF4F8883CE5BD0400A9DF0010B9D14
:1044E000F00D112441E050E04C0F5D1FE40FF51F6B
:1044F00081E09285913009F080E0C354DF4F8883DA
:10450000CD5BD0400A9DF0010B9DF00D112461E0C0
:1045100070E06C0F7D1FE60FF71F4385C054DF4F1F
:104520004883C05CD040C154DF4FC882CF5BD040CD
:10453000A1EBB0E0AC0FBD1F5596109F9001112468
:1045400090E080E0841788F4FC01EE0FFF1FE20F7B
:10455000F31F61E070E06C0F7D1FE60FF71F6485AD
:1045600075856D937D930196EDCFCE018F549F4F4E
:104570000E94A10BBE016F547F4F811135CFCE0138
:104580008F549F4F0E94BF0C2DCF6EE473E08BE4DD
:1045900095E00E944D064091BF0550E070E060E05C
:1045A0002AE08BE495E00E9432106FE373E08BE425
:1045B00095E00E944D064091D2075091D30760913B
:1045C000D4077091D5072AE08BE495E00E94321061
:1045D00064E373E08BE495E00E944D064091D607BA
:1045E0005091D7076091D8077091D9072AE08BE4E2
:1045F00095E00E9432106EE372E08BE495E00E9439
:10460000231086EA93E00E9486100091A80510917D
:10461000A905BE016F5F7F4F80E00E94930EF82EC8
:10462000882339F0BE016F5F7F4FC8010E948E0A58
:10463000F82EBE016D5E7F4F81E00E94930E8823AD
:1046400031F0BE016D5E7F4FC8010E948E0AFF20CF
:1046500009F4E7C0882399F08F89988DA98DBA8DC8
:104660004D815E816F817885841B950BA60BB70BFE
:10467000FF24F394181619061A061B060CF0F12CE9
:104680008EE492E0CF54DF4F99838883C15BD040A2
:1046900082E390E0CD54DF4F99838883C35BD040A1
:1046A00089E190E0CB54DF4F99838883C55BD0408C
:1046B000C954DF4F1882C75BD0407FEFF71609F46B
:1046C000B8C0CF2C0F2C000CDD08E1E0F0E0EC0FBF
:1046D000FD1F8F2D92E18902E00DF11D11248085CF
:1046E0009185CF54DF4F99838883C15BD040828509
:1046F0009385CD54DF4F99838883C35BD0408485F5
:104700009585CB54DF4F99838883C55BD04081E08A
:104710009381913009F080E0C954DF4F8883C75BF3
:10472000D040CE018F549F4F0E946F0A882309F416
:1047300080C087E0FE01EF54FF4FD80101900D9239
:104740008A95E1F782E18C9DF0018D9DF00D112499
:10475000A1E0B0E0AC0FBD1FEA0FFB1F8481958183
:10476000A681B781F80187839087A187B287F386F6
:1047700081E0848715868091A8059091A9050E9403
:1047800065030E94B4118AE993E00E94861061E0FB
:1047900080916C070E942B0510926E0710926F0794
:1047A00060916D0781E0682780916C070E94B304D7
:1047B00086E993E00E94861061E0809170070E9474
:1047C0002B0580E00E94E10410927207109274079A
:1047D000109275071092760710927807109277075B
:1047E00010927A07109279078FE893E00E94861062
:1047F0008091800762E0811101C060E080917F07B5
:104800000E942B0580917F070E948A049C01809161
:10481000800791E081112CC02130310561F190E0D9
:104820002AC0FF24FA94882309F42ACFFF24F394A2
:1048300027CF8EE492E0D80111969C938E9382E369
:1048400090E013969C938E93129789E190E01596D1
:104850009C938E93149716961C92F80117821086DB
:10486000118612868FEF8387148681E0858783CF38
:1048700021303105A1F290938307909384070E9421
:10488000D30560938507709386078093870790937D
:10489000880782E893E00E948610009189071091B2
:1048A0008A071092C8041092C7041092CA0410928A
:1048B000C9040E94EC0489ED93E09093F204809384
:1048C000F1048AED93E09093F6048093F504D80107
:1048D00015961C9215971B968C911B97823018F099
:1048E00098E015969C93F801808762E370E080E081
:1048F00090E00E94A105D8011C966C91C8010E940D
:10490000250868EE73E080E090E00E94A10560E376
:10491000C8010E94FB0DFBE4EF2EF6E4FF2EC70159
:104920000197F1F760E3C8010E94FB0DC7010197F1
:10493000F1F760E3C8010E94FB0D83E592E0019767
:10494000F1F760E2C8010E94FB0DF8016581606229
:1049500040E0C8010E94140E84E0D80116968C93A2
:1049600040E06CE0C8010E94140EC8010E945A0E7B
:1049700082E0F801878340E066E0C8010E94140EDF
:1049800040E062E0C8010E94140E8BE39FE10197B2
:10499000F1F78091890790918A0718E0DC011C9655
:1049A0001C9360E00E9425088091890790918A07F6
:1049B0000E945A0E10928B0710928C0710928D074E
:1049C00010928E0710928F07109290071092910705
:1049D00010929207109293071092940701E00093AF
:1049E00095078EE793E00E9486108DE997E00E947C
:1049F000BF0C0093AB0710929C071092D107109345
:104A000001010E94D3050E946C0D88E793E00E948B
:104A100086100E941B1280E793E00E9486108AE6AF
:104A200093E00E948610E1EBF0E0EC0FFD1F329660
:104A3000C151DF4FF983E883CF5ED0400E94D30598
:104A40002B013C0181E0809353080E94D305009123
:104A50004308109144082091450830914608AB0165
:104A6000BC01401B510B620B730B80914F0890915E
:104A70005008B0E0A0E084179507A607B70708F034
:104A800020C110E080914D08181760F4E0914908AA
:104A9000F0914A08E10FF11D62E080810E942B0530
:104AA0001F5FF0CF912C80914E08981608F063C0DC
:104AB000E92CF12CE0914B08F0914C08EE0DFF1D14
:104AC00061E080810E942B05E0914B08F0914C0839
:104AD000EE0DFF1D60E080810E94B30481E090E054
:104AE000A0E0B0E0092C04C0880F991FAA1FBB1FCB
:104AF0000A94D2F75C016C01C094D094812C80910F
:104B00004D08881608F5082D10E0E0914908F0914D
:104B10004A08E00FF11F80810E948A040C5F1F4F3A
:104B2000000F111FF801E951F84F892B41F48081E2
:104B300091818A299B29918380838394E0CF80810E
:104B400091818C219D21F7CFE0914B08F0914C0889
:104B5000EE0DFF1D61E080810E94B30480914B083F
:104B600090914C08E80EF91E60E0D7018C910E94EC
:104B70002B05939498CF77EEE72E77E0F72E670119
:104B80008FEF9FEFF601278D30A1232B21F4148E98
:104B9000968F858F11A2F6E0CF0ED11C23E2C216AC
:104BA00028E0D20679F7B12C66E0962E80914D0868
:104BB000B81608F051C0A12C0B2D10E0000F111FEA
:104BC0000151184F20914E08A21608F043C0D80199
:104BD0006D917C910A2C02C0769567950A94E2F754
:104BE000B29E900111242A0D311DE7EEF7E080E01E
:104BF000458D568D2417350711F40C94A3358F5F1E
:104C000036968A30A9F760FF23C0E7EEF7E090E020
:104C100080E0448D411117C0E0914708F0914808A9
:104C2000E20FF31F4081989EF001999EF00D112430
:104C3000E951F84F448F368F258F10A2178E61E00F
:104C40000E94DF0505C0019636968A30910509F766
:104C5000A394B8CFB394AACF10E0F70181A181113A
:104C6000182FF6E0EF0EF11CCE14DF04B1F70E940E
:104C7000D30560934308709344088093450890934C
:104C800046081123F1F0109108081123D1F080910A
:104C90000608909107080197A1F4009103080111FB
:104CA00013C080917F070E948A049C018091800735
:104CB00091E08111D4C12130310509F4D4C190E0D3
:104CC000D2C110925308EDCF0E94D3054B015C0175
:104CD00090919C078DEF890F853048F410927304F2
:104CE000033209F0EBC00E94DE0C182F31C1809115
:104CF00073048823B9F040916F045091700460915F
:104D000071047091720475016401C41AD50AE60A2F
:104D1000F70AB701A601413A5F406105710510F03D
:104D20001092730480917304E82FF0E0E85DFE4F69
:104D30002081021791F081E0043409F080E0809333
:104D4000730480926F0490927004A0927104B092E8
:104D50007204043409F4A5CFC3CF8F5F809373042A
:104D600080926F0490927004A0927104B0927204C9
:104D7000843008F496CF109273041091AA07113072
:104D800081F540919D0750919E0760919F0770911A
:104D9000A007452B462B472B21F1923009F087C005
:104DA0008091A5079091A607A091A707B091A807A9
:104DB000892B8A2B8B2B09F07AC08091B0079091B8
:104DC000B107892B09F073C086E08093AB078DE9AA
:104DD00097E00E94BF0C1093AB0710929C071092B3
:104DE000D10780EC93E09F938F931F9280E48F9381
:104DF000AE014F5F5F4F7A015F934F930E9421385E
:104E00008C0101970F900F900F900F900F900F90C3
:104E1000CF9758F5B801C7010E94D90A20E430E0C5
:104E20006901C01AD10A9F938F9389EB93E09F93F6
:104E30008F93DF92CF92C701800F911F9F938F9323
:104E40000E9421380FB6F894DEBF0FBECDBF1816F2
:104E500019065CF48C159D0540F4A801480F591FF4
:104E6000B70182EF95E00E94710681E0809372079E
:104E7000109274071092750783E08093760780E59F
:104E800090E0909378078093770790937A078093C8
:104E9000790780927B0790927C07A0927D07B09261
:104EA0007E0781E00E94E1046CEE73E002C064E1E1
:104EB00074E08BE495E00E94E010F3CE20ED200F2B
:104EC0002A30D0F0EDEDE00FE23208F0C6C0F0E09D
:104ED000E45DFE4FE081E150E73008F0BEC0F0E055
:104EE000EC58F84D0C949E3B7B27EA271728FC27AB
:104EF000F127D527732620E0E0919607F0919707D8
:104F00008081823008F0A9C040919A07453008F0AE
:104F1000A4C030E0E0919807F0919907C90180950D
:104F200090956AE070E00E946B3B6E177F0708F473
:104F300094C05AE05E9FC0015F9F900D1124280F1E
:104F4000391F30939907209398074F5F40939A0732
:104F500063E674E08BE495E00E944D06602F8BE4DD
:104F600095E00E9446066CE574E08BE495E00E94B3
:104F70004D06802F90E00E947E1064E574E08BE483
:104F800095E00E944D0680919C0790E00E947E1063
:104F90006AE474E08BE495E00E944D0668E474E0F6
:104FA000111187CF66E474E084CF20919A07222301
:104FB00009F453C080919807909199076AE070E0D6
:104FC0000E946B3B70939907609398072150209340
:104FD0009A07BECF80919607909197070E94620C26
:104FE00084CEE0919607F091970780818330A9F5F0
:104FF00084E087878083ACCFE0909607F090970796
:10500000D7018C91853059F4C70101960E94A10BFC
:10501000882319F082E0F701EDCF80E0FCCF8330E8
:1050200010F08730D1F485E0D7018C9391CFE090D8
:105030009607F0909707C70101960E94BF0C81E088
:10504000F7018787108215AA109299071092980786
:1050500010929A0710929B077BCF10E079CF2130F6
:10506000310509F42CCE80918307891751F0909374
:105070008307409285075092860760928707709257
:1050800088078091830790918407981719F14091C0
:105090008507509186076091870770918807930173
:1050A0008201041B150B260B370B40918107509191
:1050B000820770E060E0041715072607370750F0F5
:1050C00080938407882331F0809196079091970709
:1050D0000E94620CC301B2010E946C0D0E948A16EC
:1050E00080919C07833009F075C0B301A2018AE565
:1050F00097E00E94450B882309F46CC080919C07BF
:10510000833009F067C09091AC078091AD07891793
:1051100008F060C02091AE073091AF07E82FF0E0B3
:10512000EE0FFF1FEF54F84F4181528124173507CE
:1051300030F42F5F3F4F3093AF072093AE0720919D
:10514000AE073091AF072417350708F443C08F5FCF
:10515000891708F444C19093AD071092AF071092DD
:10516000AE078091B0079091B10701969093B10777
:105170008093B00725E02093AB0727E020939C079E
:1051800022E02093C6074091A1075091A2076091A9
:10519000A3077091A4074093C7075093C807609373
:1051A000C9077093CA074091A5075091A60760915F
:1051B000A7077091A8074093CB075093CC07609343
:1051C000CD077093CE079093D0078093CF0781E0EF
:1051D0008093D107C301B2010E946C0D0E948A1610
:1051E00021EB30E02C0F3D1F2C5F3F4FC351DF4FB1
:1051F00039832883CD5ED04082EF95E00E94EE0790
:10520000181619060CF0D4C582EF95E00E94040828
:105210008D3091F320911007309111078A3009F0F9
:10522000B7C5F901E855F94F1082232B09F4B7C12E
:105230004DE050E06BED72E088EA96E00E94AD3BF5
:10524000892B09F4D3C04DE050E069EE72E088EAA2
:1052500096E00E94AD3B892B09F4C8C04FE050E0B6
:1052600067EF72E088EA96E00E94AD3B892B09F473
:10527000BDC040E150E067E073E088EA96E00E943C
:10528000AD3B892B09F4B2C040E150E068E173E026
:1052900088EA96E00E94AD3B892B09F0BAC26CE720
:1052A00070E088EA96E00E94BB3B8C01009709F40D
:1052B00076C1C652DF4F19821882CA5DD040BE0146
:1052C00066527F4F01960E943315882309F467C107
:1052D000B801685A764088EA96E00E94D90AC65218
:1052E000DF4F28813981CA5DD0408217930709F0CA
:1052F00056C1D8011C92CF54DF4F19821882C15B6E
:10530000D040AE014F545F4F66E773E088EA96E005
:105310000E94FA376C01AE014F545F4F66E773E0AD
:1053200090E080E00E94FA377C01AE014F545F4F5D
:1053300066E773E090E080E00E94FA378C01AE01EE
:105340004F545F4F66E773E090E080E00E94FA37C9
:10535000C114D10409F423C1E114F10409F41FC1FB
:105360000115110509F41BC1892B09F018C169E267
:1053700073E0C6010E94A43B892B09F010C163E6CB
:1053800073E0C7010E94A43B892B09F008C11A826F
:1053900019824AE050E0BE016F5F7F4FC8010E9452
:1053A0000637E981FA81309709F4F9C0208121118B
:1053B000F6C0611571058105910509F4F0C02091D1
:1053C00046072111ECC06093420770934307809316
:1053D000440790934507B1E0B0934607E0C084E0EE
:1053E0008093AB0786E080939C07F4CE19824EE44D
:1053F00052E05B834A8362E370E07D836C8389E1E2
:1054000090E09F838E8318866CE770E088EA96E0D0
:105410000E94BB3B8C01009709F4C1C0019609F4BE
:10542000BEC0DC010D900020E9F79D012550310937
:105430002817390709F0B3C0CF54DF4F19821882FB
:10544000C15BD04040E150E0BE016F547F4F0E94ED
:1054500006376B017C01CF54DF4FE881F981C15BD6
:10546000D040309709F49BC08081811198C0C1144D
:10547000D104B1E0EB06F10408F091C0B801685A1C
:10548000764088EA96E00E94D90A8C159D0509F0BD
:1054900086C0F8011082C652DF4F19821882CA5D99
:1054A000D040AE0146525F4F66E773E088EA96E06F
:1054B0000E94FA377C01AE0146525F4F66E773E007
:1054C00090E080E00E94FA378C01E114F10409F4C5
:1054D00066C0892B09F463C069E273E0C7010E94CA
:1054E000A43B892B09F05BC06EE273E0C8010E9407
:1054F000A43B892B41F066E373E0C8010E94A43B02
:10550000892B09F053C0AE0146525F4F66E773E046
:1055100090E080E00E94FA376C01AE0146525F4F86
:1055200066E773E090E080E00E94FA377C01AE010C
:1055300046525F4F66E773E090E080E00E94FA37E2
:10554000C114D10461F1E114F10449F1892B39F559
:1055500060E473E0C6010E94A43B892B01F56CE373
:1055600072E0C7010E94A43B892BC9F46EE273E08C
:10557000C8010E94A43B892BB9F481E090915007A7
:1055800091110DC0898388E0FE013196A8E4B7E04F
:1055900001900D928A95E1F741E0409350071092F7
:1055A00011071092100728CE83E0E8CF65E473E07E
:1055B000C8010E94A43B892B09F0E0C0AE0146520D
:1055C0005F4F66E773E090E080E00E94FA376C017D
:1055D000AE0146525F4F66E773E090E080E00E94C4
:1055E000FA375C01AE0146525F4F66E773E090E028
:1055F00080E00E94FA374C01AE0146525F4F66E7E9
:1056000073E090E080E00E94FA371C01AE01465240
:105610005F4F66E773E090E080E00E94FA378C010C
:10562000AE0146525F4F66E773E090E080E00E9473
:10563000FA377C01AE0146525F4F66E773E090E0B7
:1056400080E00E94FA37C114D10409F4A8CFA11454
:10565000B10409F4A4CF8114910409F4A0CF21145A
:10566000310409F49CCF0115110509F498CFE11418
:10567000F10409F494CF892B09F091CF60E473E031
:10568000C6010E94A43B892B09F089CF6CE372E02C
:10569000C7010E94A43B892B09F081CF9EE4C92E4B
:1056A00092E0D92ECF54DF4FD982C882C15BD0405F
:1056B00022E3E22EF12CCD54DF4FF982E882C35B66
:1056C000D04029E130E0CB54DF4F39832883C55BDC
:1056D000D040C954DF4F1882C75BD040BE016F5421
:1056E0007F4FC5010E943B1C882309F458CFC1514C
:1056F000DF4F68817981CF5ED040C4010E943B1C9E
:10570000882309F44CCFC351DF4F68817981CD5E86
:10571000D040C1010E943B1C882309F440CF6BEDAF
:1057200071E0C8010E94A43B892BC9F4C954DF4F22
:105730001882C75BD040CE018F549F4F0E946F0AE2
:10574000882309F42CCF87E0FE01EF54FF4FDE01E0
:10575000129601900D928A95E1F782E00FCF63EDEA
:1057600071E0C8010E94A43B892B09F018CF31E0F9
:10577000C954DF4F3883C75BD040DDCF6DE473E0A1
:10578000C8010E94A43B892B09F009CFAE01465203
:105790005F4F66E773E090E080E00E94FA378C018B
:1057A000AE0146525F4F66E773E090E080E00E94F2
:1057B000FA377C01AE0146525F4F66E773E090E036
:1057C00080E00E94FA370115110509F4E8CEE114D2
:1057D000F10409F4E4CE892B09F0E1CE6CE372E028
:1057E000C7010E94A43B892B09F0D9CE68E573E07C
:1057F000C8010E94A43B892B11F484E0BFCE6EE562
:1058000073E0C8010E94A43B892B09F0C8CE85E053
:10581000B5CE49E050E06EE673E088EA96E00E947B
:10582000AD3B892B59F0E8EAF6E080E091919923AD
:1058300009F478C19C37D1F78F5FF8CFCE0101967C
:105840000E94BF0C6CE770E088EA96E00E94BB3BC8
:105850008C01009709F4A3CECB51DF4F1982188237
:10586000C55ED040BE016B517F4F01960E9433153B
:10587000882309F494CEB801685A764088EA96E005
:105880000E94D90ACB51DF4F28813981C55ED040B3
:105890008217930709F083CEF8011082C652DF4FBA
:1058A00019821882CA5DD040AE0146525F4F66E74A
:1058B00073E088EA96E00E94FA376C01AE01465226
:1058C0005F4F66E773E090E080E00E94FA378C015A
:1058D000AE0146525F4F66E773E090E080E00E94C1
:1058E000FA37C951DF4F99838883C75ED040AE0134
:1058F00046525F4F66E773E090E080E00E94FA371F
:105900004C01AE0146525F4F66E773E090E080E0E5
:105910000E94FA371C01AE0146525F4F66E773E002
:1059200090E080E00E94FA37C751DF4F9983888367
:10593000C95ED040AE0146525F4F66E773E090E02B
:1059400080E00E94FA377C01AE0146525F4F66E765
:1059500073E090E080E00E94FA375C01AE014652AD
:105960005F4F66E773E090E080E00E94FA37C55130
:10597000DF4F99838883CB5ED040C114D10409F4F2
:105980000ECE0115110509F40ACEC951DF4F288149
:105990003981C75ED040232B09F401CE81149104D4
:1059A00009F4FDCD2114310409F4F9CDC751DF4FBD
:1059B00048815981C95ED040452B09F4F0CDE114EE
:1059C000F10409F4ECCD69E273E0C6010E94A43B46
:1059D000892B09F0E4CD68E773E0C8010E94A43B7D
:1059E000892B09F0DCCDC551DF4FC880D980CB5E53
:1059F000D040CD2809F0D3CDA114B10441F06CE31F
:105A000072E0C5010E94A43B892B09F0C8CDCE01EC
:105A100001960E94BF0C4AE050E070E060E0C9517E
:105A2000DF4F88819981C75ED0400E940637698325
:105A30007A838B839C834AE050E070E060E0C4018D
:105A40000E9406376D837E838F83988761E472E0BE
:105A5000C1010E94A43B21E0892B09F020E02D87A1
:105A6000DD24D394DE864AE050E070E060E0C75168
:105A7000DF4F88819981C95ED0400E940637688BCC
:105A800089819A81AB81BC81892B8A2B8B2B09F46C
:105A900086CD61506A3008F082CDCF54DF4F198235
:105AA0001882C15BD040AE014F545F4F6CE773E08A
:105AB000C7010E94FA3710E02889009711F40C946E
:105AC000A635121708F06BCD4AE050E070E060E0B8
:105AD0000E9406376B017C0121E0C21AD108E1085F
